{
  "_format": "hh-sol-artifact-1",
  "contractName": "CertificadosOnChainConexalab",
  "sourceName": "contracts/CertificadosOnChainConexalab.sol",
  "abi": [
    {
      "inputs": [],
      "stateMutability": "nonpayable",
      "type": "constructor"
    },
    {
      "inputs": [
        {
          "internalType": "address",
          "name": "sender",
          "type": "address"
        },
        {
          "internalType": "uint256",
          "name": "tokenId",
          "type": "uint256"
        },
        {
          "internalType": "address",
          "name": "owner",
          "type": "address"
        }
      ],
      "name": "ERC721IncorrectOwner",
      "type": "error"
    },
    {
      "inputs": [
        {
          "internalType": "address",
          "name": "operator",
          "type": "address"
        },
        {
          "internalType": "uint256",
          "name": "tokenId",
          "type": "uint256"
        }
      ],
      "name": "ERC721InsufficientApproval",
      "type": "error"
    },
    {
      "inputs": [
        {
          "internalType": "address",
          "name": "approver",
          "type": "address"
        }
      ],
      "name": "ERC721InvalidApprover",
      "type": "error"
    },
    {
      "inputs": [
        {
          "internalType": "address",
          "name": "operator",
          "type": "address"
        }
      ],
      "name": "ERC721InvalidOperator",
      "type": "error"
    },
    {
      "inputs": [
        {
          "internalType": "address",
          "name": "owner",
          "type": "address"
        }
      ],
      "name": "ERC721InvalidOwner",
      "type": "error"
    },
    {
      "inputs": [
        {
          "internalType": "address",
          "name": "receiver",
          "type": "address"
        }
      ],
      "name": "ERC721InvalidReceiver",
      "type": "error"
    },
    {
      "inputs": [
        {
          "internalType": "address",
          "name": "sender",
          "type": "address"
        }
      ],
      "name": "ERC721InvalidSender",
      "type": "error"
    },
    {
      "inputs": [
        {
          "internalType": "uint256",
          "name": "tokenId",
          "type": "uint256"
        }
      ],
      "name": "ERC721NonexistentToken",
      "type": "error"
    },
    {
      "inputs": [
        {
          "internalType": "address",
          "name": "owner",
          "type": "address"
        }
      ],
      "name": "OwnableInvalidOwner",
      "type": "error"
    },
    {
      "inputs": [
        {
          "internalType": "address",
          "name": "account",
          "type": "address"
        }
      ],
      "name": "OwnableUnauthorizedAccount",
      "type": "error"
    },
    {
      "anonymous": false,
      "inputs": [
        {
          "indexed": true,
          "internalType": "address",
          "name": "owner",
          "type": "address"
        },
        {
          "indexed": true,
          "internalType": "address",
          "name": "approved",
          "type": "address"
        },
        {
          "indexed": true,
          "internalType": "uint256",
          "name": "tokenId",
          "type": "uint256"
        }
      ],
      "name": "Approval",
      "type": "event"
    },
    {
      "anonymous": false,
      "inputs": [
        {
          "indexed": true,
          "internalType": "address",
          "name": "owner",
          "type": "address"
        },
        {
          "indexed": true,
          "internalType": "address",
          "name": "operator",
          "type": "address"
        },
        {
          "indexed": false,
          "internalType": "bool",
          "name": "approved",
          "type": "bool"
        }
      ],
      "name": "ApprovalForAll",
      "type": "event"
    },
    {
      "anonymous": false,
      "inputs": [
        {
          "indexed": true,
          "internalType": "address",
          "name": "previousOwner",
          "type": "address"
        },
        {
          "indexed": true,
          "internalType": "address",
          "name": "newOwner",
          "type": "address"
        }
      ],
      "name": "OwnershipTransferred",
      "type": "event"
    },
    {
      "anonymous": false,
      "inputs": [
        {
          "indexed": true,
          "internalType": "address",
          "name": "from",
          "type": "address"
        },
        {
          "indexed": true,
          "internalType": "address",
          "name": "to",
          "type": "address"
        },
        {
          "indexed": true,
          "internalType": "uint256",
          "name": "tokenId",
          "type": "uint256"
        }
      ],
      "name": "Transfer",
      "type": "event"
    },
    {
      "inputs": [
        {
          "internalType": "address",
          "name": "to",
          "type": "address"
        },
        {
          "internalType": "uint256",
          "name": "tokenId",
          "type": "uint256"
        }
      ],
      "name": "approve",
      "outputs": [],
      "stateMutability": "nonpayable",
      "type": "function"
    },
    {
      "inputs": [
        {
          "internalType": "address",
          "name": "owner",
          "type": "address"
        }
      ],
      "name": "balanceOf",
      "outputs": [
        {
          "internalType": "uint256",
          "name": "",
          "type": "uint256"
        }
      ],
      "stateMutability": "view",
      "type": "function"
    },
    {
      "inputs": [
        {
          "internalType": "uint256",
          "name": "tokenId",
          "type": "uint256"
        }
      ],
      "name": "getApproved",
      "outputs": [
        {
          "internalType": "address",
          "name": "",
          "type": "address"
        }
      ],
      "stateMutability": "view",
      "type": "function"
    },
    {
      "inputs": [
        {
          "internalType": "address",
          "name": "owner",
          "type": "address"
        },
        {
          "internalType": "address",
          "name": "operator",
          "type": "address"
        }
      ],
      "name": "isApprovedForAll",
      "outputs": [
        {
          "internalType": "bool",
          "name": "",
          "type": "bool"
        }
      ],
      "stateMutability": "view",
      "type": "function"
    },
    {
      "inputs": [
        {
          "internalType": "string",
          "name": "nombre",
          "type": "string"
        },
        {
          "internalType": "uint256",
          "name": "cedula",
          "type": "uint256"
        },
        {
          "internalType": "string",
          "name": "descripcion",
          "type": "string"
        },
        {
          "internalType": "string",
          "name": "fecha",
          "type": "string"
        }
      ],
      "name": "mintCertificado",
      "outputs": [
        {
          "internalType": "uint256",
          "name": "",
          "type": "uint256"
        }
      ],
      "stateMutability": "nonpayable",
      "type": "function"
    },
    {
      "inputs": [],
      "name": "name",
      "outputs": [
        {
          "internalType": "string",
          "name": "",
          "type": "string"
        }
      ],
      "stateMutability": "view",
      "type": "function"
    },
    {
      "inputs": [],
      "name": "owner",
      "outputs": [
        {
          "internalType": "address",
          "name": "",
          "type": "address"
        }
      ],
      "stateMutability": "view",
      "type": "function"
    },
    {
      "inputs": [
        {
          "internalType": "uint256",
          "name": "tokenId",
          "type": "uint256"
        }
      ],
      "name": "ownerOf",
      "outputs": [
        {
          "internalType": "address",
          "name": "",
          "type": "address"
        }
      ],
      "stateMutability": "view",
      "type": "function"
    },
    {
      "inputs": [],
      "name": "renounceOwnership",
      "outputs": [],
      "stateMutability": "nonpayable",
      "type": "function"
    },
    {
      "inputs": [
        {
          "internalType": "address",
          "name": "from",
          "type": "address"
        },
        {
          "internalType": "address",
          "name": "to",
          "type": "address"
        },
        {
          "internalType": "uint256",
          "name": "tokenId",
          "type": "uint256"
        }
      ],
      "name": "safeTransferFrom",
      "outputs": [],
      "stateMutability": "nonpayable",
      "type": "function"
    },
    {
      "inputs": [
        {
          "internalType": "address",
          "name": "from",
          "type": "address"
        },
        {
          "internalType": "address",
          "name": "to",
          "type": "address"
        },
        {
          "internalType": "uint256",
          "name": "tokenId",
          "type": "uint256"
        },
        {
          "internalType": "bytes",
          "name": "data",
          "type": "bytes"
        }
      ],
      "name": "safeTransferFrom",
      "outputs": [],
      "stateMutability": "nonpayable",
      "type": "function"
    },
    {
      "inputs": [
        {
          "internalType": "address",
          "name": "operator",
          "type": "address"
        },
        {
          "internalType": "bool",
          "name": "approved",
          "type": "bool"
        }
      ],
      "name": "setApprovalForAll",
      "outputs": [],
      "stateMutability": "nonpayable",
      "type": "function"
    },
    {
      "inputs": [
        {
          "internalType": "bytes4",
          "name": "interfaceId",
          "type": "bytes4"
        }
      ],
      "name": "supportsInterface",
      "outputs": [
        {
          "internalType": "bool",
          "name": "",
          "type": "bool"
        }
      ],
      "stateMutability": "view",
      "type": "function"
    },
    {
      "inputs": [],
      "name": "symbol",
      "outputs": [
        {
          "internalType": "string",
          "name": "",
          "type": "string"
        }
      ],
      "stateMutability": "view",
      "type": "function"
    },
    {
      "inputs": [
        {
          "internalType": "uint256",
          "name": "tokenId",
          "type": "uint256"
        }
      ],
      "name": "tokenURI",
      "outputs": [
        {
          "internalType": "string",
          "name": "",
          "type": "string"
        }
      ],
      "stateMutability": "view",
      "type": "function"
    },
    {
      "inputs": [
        {
          "internalType": "address",
          "name": "from",
          "type": "address"
        },
        {
          "internalType": "address",
          "name": "to",
          "type": "address"
        },
        {
          "internalType": "uint256",
          "name": "tokenId",
          "type": "uint256"
        }
      ],
      "name": "transferFrom",
      "outputs": [],
      "stateMutability": "nonpayable",
      "type": "function"
    },
    {
      "inputs": [
        {
          "internalType": "address",
          "name": "newOwner",
          "type": "address"
        }
      ],
      "name": "transferOwnership",
      "outputs": [],
      "stateMutability": "nonpayable",
      "type": "function"
    }
  ],
  "bytecode": "0x60806040523480156200001157600080fd5b50336040518060400160405280601c81526020017f436572746966696361646f734f6e436861696e436f6e6578616c6162000000008152506040518060400160405280600481526020017f4345525400000000000000000000000000000000000000000000000000000000815250816000908162000090919062000472565b508060019081620000a2919062000472565b505050600073ffffffffffffffffffffffffffffffffffffffff168173ffffffffffffffffffffffffffffffffffffffff16036200011a5760006040517f1e4fbdf70000000000000000000000000000000000000000000000000000000081526004016200011191906200059e565b60405180910390fd5b6200012b816200013260201b60201c565b50620005bb565b6000600660009054906101000a900473ffffffffffffffffffffffffffffffffffffffff16905081600660006101000a81548173ffffffffffffffffffffffffffffffffffffffff021916908373ffffffffffffffffffffffffffffffffffffffff1602179055508173ffffffffffffffffffffffffffffffffffffffff168173ffffffffffffffffffffffffffffffffffffffff167f8be0079c531659141344cd1fd0a4f28419497f9722a3daafe3b4186f6b6457e060405160405180910390a35050565b600081519050919050565b7f4e487b7100000000000000000000000000000000000000000000000000000000600052604160045260246000fd5b7f4e487b7100000000000000000000000000000000000000000000000000000000600052602260045260246000fd5b600060028204905060018216806200027a57607f821691505b60208210810362000290576200028f62000232565b5b50919050565b60008190508160005260206000209050919050565b60006020601f8301049050919050565b600082821b905092915050565b600060088302620002fa7fffffffffffffffffffffffffffffffffffffffffffffffffffffffffffffffff82620002bb565b620003068683620002bb565b95508019841693508086168417925050509392505050565b6000819050919050565b6000819050919050565b6000620003536200034d62000347846200031e565b62000328565b6200031e565b9050919050565b6000819050919050565b6200036f8362000332565b620003876200037e826200035a565b848454620002c8565b825550505050565b600090565b6200039e6200038f565b620003ab81848462000364565b505050565b5b81811015620003d357620003c760008262000394565b600181019050620003b1565b5050565b601f8211156200042257620003ec8162000296565b620003f784620002ab565b8101602085101562000407578190505b6200041f6200041685620002ab565b830182620003b0565b50505b505050565b600082821c905092915050565b6000620004476000198460080262000427565b1980831691505092915050565b600062000462838362000434565b9150826002028217905092915050565b6200047d82620001f8565b67ffffffffffffffff81111562000499576200049862000203565b5b620004a5825462000261565b620004b2828285620003d7565b600060209050601f831160018114620004ea5760008415620004d5578287015190505b620004e1858262000454565b86555062000551565b601f198416620004fa8662000296565b60005b828110156200052457848901518255600182019150602085019450602081019050620004fd565b8683101562000544578489015162000540601f89168262000434565b8355505b6001600288020188555050505b505050505050565b600073ffffffffffffffffffffffffffffffffffffffff82169050919050565b6000620005868262000559565b9050919050565b620005988162000579565b82525050565b6000602082019050620005b560008301846200058d565b92915050565b612f9e80620005cb6000396000f3fe608060405234801561001057600080fd5b506004361061010b5760003560e01c806370a08231116100a2578063a22cb46511610071578063a22cb465146102b8578063b88d4fde146102d4578063c87b56dd146102f0578063e985e9c514610320578063f2fde38b146103505761010b565b806370a0823114610242578063715018a6146102725780638da5cb5b1461027c57806395d89b411461029a5761010b565b806323b872dd116100de57806323b872dd146101aa5780633920a6de146101c657806342842e0e146101f65780636352211e146102125761010b565b806301ffc9a71461011057806306fdde0314610140578063081812fc1461015e578063095ea7b31461018e575b600080fd5b61012a60048036038101906101259190611e62565b61036c565b6040516101379190611eaa565b60405180910390f35b61014861044e565b6040516101559190611f55565b60405180910390f35b61017860048036038101906101739190611fad565b6104e0565b604051610185919061201b565b60405180910390f35b6101a860048036038101906101a39190612062565b6104fc565b005b6101c460048036038101906101bf91906120a2565b610512565b005b6101e060048036038101906101db919061222a565b610614565b6040516101ed91906122f4565b60405180910390f35b610210600480360381019061020b91906120a2565b6106ef565b005b61022c60048036038101906102279190611fad565b61070f565b604051610239919061201b565b60405180910390f35b61025c6004803603810190610257919061230f565b610721565b60405161026991906122f4565b60405180910390f35b61027a6107db565b005b6102846107ef565b604051610291919061201b565b60405180910390f35b6102a2610819565b6040516102af9190611f55565b60405180910390f35b6102d260048036038101906102cd9190612368565b6108ab565b005b6102ee60048036038101906102e99190612449565b6108c1565b005b61030a60048036038101906103059190611fad565b6108e6565b6040516103179190611f55565b60405180910390f35b61033a600480360381019061033591906124cc565b610bac565b6040516103479190611eaa565b60405180910390f35b61036a6004803603810190610365919061230f565b610c40565b005b60007f80ac58cd000000000000000000000000000000000000000000000000000000007bffffffffffffffffffffffffffffffffffffffffffffffffffffffff1916827bffffffffffffffffffffffffffffffffffffffffffffffffffffffff1916148061043757507f5b5e139f000000000000000000000000000000000000000000000000000000007bffffffffffffffffffffffffffffffffffffffffffffffffffffffff1916827bffffffffffffffffffffffffffffffffffffffffffffffffffffffff1916145b80610447575061044682610cc6565b5b9050919050565b60606000805461045d9061253b565b80601f01602080910402602001604051908101604052809291908181526020018280546104899061253b565b80156104d65780601f106104ab576101008083540402835291602001916104d6565b820191906000526020600020905b8154815290600101906020018083116104b957829003601f168201915b5050505050905090565b60006104eb82610d30565b506104f582610db8565b9050919050565b61050e8282610509610df5565b610dfd565b5050565b600073ffffffffffffffffffffffffffffffffffffffff168273ffffffffffffffffffffffffffffffffffffffff16036105845760006040517f64a0ae9200000000000000000000000000000000000000000000000000000000815260040161057b919061201b565b60405180910390fd5b60006105988383610593610df5565b610e0f565b90508373ffffffffffffffffffffffffffffffffffffffff168173ffffffffffffffffffffffffffffffffffffffff161461060e578382826040517f64283d7b0000000000000000000000000000000000000000000000000000000081526004016106059392919061256c565b60405180910390fd5b50505050565b600061061e611029565b610627846110b0565b15610667576040517f08c379a000000000000000000000000000000000000000000000000000000000815260040161065e90612615565b60405180910390fd5b610671338561116c565b6040518060600160405280868152602001848152602001838152506007600086815260200190815260200160002060008201518160000190816106b491906127e1565b5060208201518160010190816106ca91906127e1565b5060408201518160020190816106e091906127e1565b50905050839050949350505050565b61070a838383604051806020016040528060008152506108c1565b505050565b600061071a82610d30565b9050919050565b60008073ffffffffffffffffffffffffffffffffffffffff168273ffffffffffffffffffffffffffffffffffffffff16036107945760006040517f89c62b6400000000000000000000000000000000000000000000000000000000815260040161078b919061201b565b60405180910390fd5b600360008373ffffffffffffffffffffffffffffffffffffffff1673ffffffffffffffffffffffffffffffffffffffff168152602001908152602001600020549050919050565b6107e3611029565b6107ed600061118a565b565b6000600660009054906101000a900473ffffffffffffffffffffffffffffffffffffffff16905090565b6060600180546108289061253b565b80601f01602080910402602001604051908101604052809291908181526020018280546108549061253b565b80156108a15780601f10610876576101008083540402835291602001916108a1565b820191906000526020600020905b81548152906001019060200180831161088457829003601f168201915b5050505050905090565b6108bd6108b6610df5565b8383611250565b5050565b6108cc848484610512565b6108e06108d7610df5565b858585856113bf565b50505050565b6060600073ffffffffffffffffffffffffffffffffffffffff166109098361070f565b73ffffffffffffffffffffffffffffffffffffffff160361095f576040517f08c379a0000000000000000000000000000000000000000000000000000000008152600401610956906128ff565b60405180910390fd5b60006007600084815260200190815260200160002060405180606001604052908160008201805461098f9061253b565b80601f01602080910402602001604051908101604052809291908181526020018280546109bb9061253b565b8015610a085780601f106109dd57610100808354040283529160200191610a08565b820191906000526020600020905b8154815290600101906020018083116109eb57829003601f168201915b50505050508152602001600182018054610a219061253b565b80601f0160208091040260200160405190810160405280929190818152602001828054610a4d9061253b565b8015610a9a5780601f10610a6f57610100808354040283529160200191610a9a565b820191906000526020600020905b815481529060010190602001808311610a7d57829003601f168201915b50505050508152602001600282018054610ab39061253b565b80601f0160208091040260200160405190810160405280929190818152602001828054610adf9061253b565b8015610b2c5780601f10610b0157610100808354040283529160200191610b2c565b820191906000526020600020905b815481529060010190602001808311610b0f57829003601f168201915b505050505081525050905060008160000151610b4785611570565b83602001518460400151604051602001610b649493929190612bbb565b60405160208183030381529060405290506000610b808261163e565b905080604051602001610b939190612cb3565b6040516020818303038152906040529350505050919050565b6000600560008473ffffffffffffffffffffffffffffffffffffffff1673ffffffffffffffffffffffffffffffffffffffff16815260200190815260200160002060008373ffffffffffffffffffffffffffffffffffffffff1673ffffffffffffffffffffffffffffffffffffffff16815260200190815260200160002060009054906101000a900460ff16905092915050565b610c48611029565b600073ffffffffffffffffffffffffffffffffffffffff168173ffffffffffffffffffffffffffffffffffffffff1603610cba5760006040517f1e4fbdf7000000000000000000000000000000000000000000000000000000008152600401610cb1919061201b565b60405180910390fd5b610cc38161118a565b50565b60007f01ffc9a7000000000000000000000000000000000000000000000000000000007bffffffffffffffffffffffffffffffffffffffffffffffffffffffff1916827bffffffffffffffffffffffffffffffffffffffffffffffffffffffff1916149050919050565b600080610d3c8361166b565b9050600073ffffffffffffffffffffffffffffffffffffffff168173ffffffffffffffffffffffffffffffffffffffff1603610daf57826040517f7e273289000000000000000000000000000000000000000000000000000000008152600401610da691906122f4565b60405180910390fd5b80915050919050565b60006004600083815260200190815260200160002060009054906101000a900473ffffffffffffffffffffffffffffffffffffffff169050919050565b600033905090565b610e0a83838360016116a8565b505050565b600080610e1b8461166b565b9050600073ffffffffffffffffffffffffffffffffffffffff168373ffffffffffffffffffffffffffffffffffffffff1614610e5d57610e5c81848661186d565b5b600073ffffffffffffffffffffffffffffffffffffffff168173ffffffffffffffffffffffffffffffffffffffff1614610eee57610e9f6000856000806116a8565b6001600360008373ffffffffffffffffffffffffffffffffffffffff1673ffffffffffffffffffffffffffffffffffffffff168152602001908152602001600020600082825403925050819055505b600073ffffffffffffffffffffffffffffffffffffffff168573ffffffffffffffffffffffffffffffffffffffff1614610f71576001600360008773ffffffffffffffffffffffffffffffffffffffff1673ffffffffffffffffffffffffffffffffffffffff168152602001908152602001600020600082825401925050819055505b846002600086815260200190815260200160002060006101000a81548173ffffffffffffffffffffffffffffffffffffffff021916908373ffffffffffffffffffffffffffffffffffffffff160217905550838573ffffffffffffffffffffffffffffffffffffffff168273ffffffffffffffffffffffffffffffffffffffff167fddf252ad1be2c89b69c2b068fc378daa952ba7f163c4a11628f55a4df523b3ef60405160405180910390a4809150509392505050565b611031610df5565b73ffffffffffffffffffffffffffffffffffffffff1661104f6107ef565b73ffffffffffffffffffffffffffffffffffffffff16146110ae57611072610df5565b6040517f118cdaa70000000000000000000000000000000000000000000000000000000081526004016110a5919061201b565b60405180910390fd5b565b60003073ffffffffffffffffffffffffffffffffffffffff16636352211e836040518263ffffffff1660e01b81526004016110eb91906122f4565b602060405180830381865afa92505050801561112557506040513d601f19601f820116820180604052508101906111229190612cea565b60015b6111325760009050611167565b600073ffffffffffffffffffffffffffffffffffffffff168173ffffffffffffffffffffffffffffffffffffffff1614159150505b919050565b611186828260405180602001604052806000815250611931565b5050565b6000600660009054906101000a900473ffffffffffffffffffffffffffffffffffffffff16905081600660006101000a81548173ffffffffffffffffffffffffffffffffffffffff021916908373ffffffffffffffffffffffffffffffffffffffff1602179055508173ffffffffffffffffffffffffffffffffffffffff168173ffffffffffffffffffffffffffffffffffffffff167f8be0079c531659141344cd1fd0a4f28419497f9722a3daafe3b4186f6b6457e060405160405180910390a35050565b600073ffffffffffffffffffffffffffffffffffffffff168273ffffffffffffffffffffffffffffffffffffffff16036112c157816040517f5b08ba180000000000000000000000000000000000000000000000000000000081526004016112b8919061201b565b60405180910390fd5b80600560008573ffffffffffffffffffffffffffffffffffffffff1673ffffffffffffffffffffffffffffffffffffffff16815260200190815260200160002060008473ffffffffffffffffffffffffffffffffffffffff1673ffffffffffffffffffffffffffffffffffffffff16815260200190815260200160002060006101000a81548160ff0219169083151502179055508173ffffffffffffffffffffffffffffffffffffffff168373ffffffffffffffffffffffffffffffffffffffff167f17307eab39ab6107e8899845ad3d59bd9653f200f220920489ca2b5937696c31836040516113b29190611eaa565b60405180910390a3505050565b60008373ffffffffffffffffffffffffffffffffffffffff163b1115611569578273ffffffffffffffffffffffffffffffffffffffff1663150b7a02868685856040518563ffffffff1660e01b815260040161141e9493929190612d6c565b6020604051808303816000875af192505050801561145a57506040513d601f19601f820116820180604052508101906114579190612dcd565b60015b6114de573d806000811461148a576040519150601f19603f3d011682016040523d82523d6000602084013e61148f565b606091505b5060008151036114d657836040517f64a0ae920000000000000000000000000000000000000000000000000000000081526004016114cd919061201b565b60405180910390fd5b805181602001fd5b63150b7a0260e01b7bffffffffffffffffffffffffffffffffffffffffffffffffffffffff1916817bffffffffffffffffffffffffffffffffffffffffffffffffffffffff19161461156757836040517f64a0ae9200000000000000000000000000000000000000000000000000000000815260040161155e919061201b565b60405180910390fd5b505b5050505050565b60606000600161157f84611955565b01905060008167ffffffffffffffff81111561159e5761159d6120ff565b5b6040519080825280601f01601f1916602001820160405280156115d05781602001600182028036833780820191505090505b509050600082602001820190505b600115611633578080600190039150507f3031323334353637383961626364656600000000000000000000000000000000600a86061a8153600a858161162757611626612dfa565b5b049450600085036115de575b819350505050919050565b606061166482604051806060016040528060408152602001612f29604091396001611aa8565b9050919050565b60006002600083815260200190815260200160002060009054906101000a900473ffffffffffffffffffffffffffffffffffffffff169050919050565b80806116e15750600073ffffffffffffffffffffffffffffffffffffffff168273ffffffffffffffffffffffffffffffffffffffff1614155b156118155760006116f184610d30565b9050600073ffffffffffffffffffffffffffffffffffffffff168373ffffffffffffffffffffffffffffffffffffffff161415801561175c57508273ffffffffffffffffffffffffffffffffffffffff168173ffffffffffffffffffffffffffffffffffffffff1614155b801561176f575061176d8184610bac565b155b156117b157826040517fa9fbf51f0000000000000000000000000000000000000000000000000000000081526004016117a8919061201b565b60405180910390fd5b811561181357838573ffffffffffffffffffffffffffffffffffffffff168273ffffffffffffffffffffffffffffffffffffffff167f8c5be1e5ebec7d5bd14f71427d1e84f3dd0314c0f7b2291e5b200ac8c7c3b92560405160405180910390a45b505b836004600085815260200190815260200160002060006101000a81548173ffffffffffffffffffffffffffffffffffffffff021916908373ffffffffffffffffffffffffffffffffffffffff16021790555050505050565b611878838383611c3c565b61192c57600073ffffffffffffffffffffffffffffffffffffffff168373ffffffffffffffffffffffffffffffffffffffff16036118ed57806040517f7e2732890000000000000000000000000000000000000000000000000000000081526004016118e491906122f4565b60405180910390fd5b81816040517f177e802f000000000000000000000000000000000000000000000000000000008152600401611923929190612e29565b60405180910390fd5b505050565b61193b8383611cfd565b611950611946610df5565b60008585856113bf565b505050565b600080600090507a184f03e93ff9f4daa797ed6e38ed64bf6a1f01000000000000000083106119b3577a184f03e93ff9f4daa797ed6e38ed64bf6a1f01000000000000000083816119a9576119a8612dfa565b5b0492506040810190505b6d04ee2d6d415b85acef810000000083106119f0576d04ee2d6d415b85acef810000000083816119e6576119e5612dfa565b5b0492506020810190505b662386f26fc100008310611a1f57662386f26fc100008381611a1557611a14612dfa565b5b0492506010810190505b6305f5e1008310611a48576305f5e1008381611a3e57611a3d612dfa565b5b0492506008810190505b6127108310611a6d576127108381611a6357611a62612dfa565b5b0492506004810190505b60648310611a905760648381611a8657611a85612dfa565b5b0492506002810190505b600a8310611a9f576001810190505b80915050919050565b60606000845103611aca57604051806020016040528060008152509050611c35565b600082611afc576003600286516004611ae39190612e81565b611aed9190612ec3565b611af79190612ef7565b611b23565b600360028651611b0c9190612ec3565b611b169190612ef7565b6004611b229190612e81565b5b905060008167ffffffffffffffff811115611b4157611b406120ff565b5b6040519080825280601f01601f191660200182016040528015611b735781602001600182028036833780820191505090505b50905060018501602082018788518901602081018051600082525b82841015611be9576003840193508351603f8160121c168701518653600186019550603f81600c1c168701518653600186019550603f8160061c168701518653600186019550603f8116870151865360018601955050611b8e565b8082528915611c295760038c510660018114611c0c5760028114611c1f57611c27565b603d6001870353603d6002870353611c27565b603d60018703535b505b50505050505080925050505b9392505050565b60008073ffffffffffffffffffffffffffffffffffffffff168373ffffffffffffffffffffffffffffffffffffffff1614158015611cf457508273ffffffffffffffffffffffffffffffffffffffff168473ffffffffffffffffffffffffffffffffffffffff161480611cb55750611cb48484610bac565b5b80611cf357508273ffffffffffffffffffffffffffffffffffffffff16611cdb83610db8565b73ffffffffffffffffffffffffffffffffffffffff16145b5b90509392505050565b600073ffffffffffffffffffffffffffffffffffffffff168273ffffffffffffffffffffffffffffffffffffffff1603611d6f5760006040517f64a0ae92000000000000000000000000000000000000000000000000000000008152600401611d66919061201b565b60405180910390fd5b6000611d7d83836000610e0f565b9050600073ffffffffffffffffffffffffffffffffffffffff168173ffffffffffffffffffffffffffffffffffffffff1614611df15760006040517f73c6ac6e000000000000000000000000000000000000000000000000000000008152600401611de8919061201b565b60405180910390fd5b505050565b6000604051905090565b600080fd5b600080fd5b60007fffffffff0000000000000000000000000000000000000000000000000000000082169050919050565b611e3f81611e0a565b8114611e4a57600080fd5b50565b600081359050611e5c81611e36565b92915050565b600060208284031215611e7857611e77611e00565b5b6000611e8684828501611e4d565b91505092915050565b60008115159050919050565b611ea481611e8f565b82525050565b6000602082019050611ebf6000830184611e9b565b92915050565b600081519050919050565b600082825260208201905092915050565b60005b83811015611eff578082015181840152602081019050611ee4565b60008484015250505050565b6000601f19601f8301169050919050565b6000611f2782611ec5565b611f318185611ed0565b9350611f41818560208601611ee1565b611f4a81611f0b565b840191505092915050565b60006020820190508181036000830152611f6f8184611f1c565b905092915050565b6000819050919050565b611f8a81611f77565b8114611f9557600080fd5b50565b600081359050611fa781611f81565b92915050565b600060208284031215611fc357611fc2611e00565b5b6000611fd184828501611f98565b91505092915050565b600073ffffffffffffffffffffffffffffffffffffffff82169050919050565b600061200582611fda565b9050919050565b61201581611ffa565b82525050565b6000602082019050612030600083018461200c565b92915050565b61203f81611ffa565b811461204a57600080fd5b50565b60008135905061205c81612036565b92915050565b6000806040838503121561207957612078611e00565b5b60006120878582860161204d565b925050602061209885828601611f98565b9150509250929050565b6000806000606084860312156120bb576120ba611e00565b5b60006120c98682870161204d565b93505060206120da8682870161204d565b92505060406120eb86828701611f98565b9150509250925092565b600080fd5b600080fd5b7f4e487b7100000000000000000000000000000000000000000000000000000000600052604160045260246000fd5b61213782611f0b565b810181811067ffffffffffffffff82111715612156576121556120ff565b5b80604052505050565b6000612169611df6565b9050612175828261212e565b919050565b600067ffffffffffffffff821115612195576121946120ff565b5b61219e82611f0b565b9050602081019050919050565b82818337600083830152505050565b60006121cd6121c88461217a565b61215f565b9050828152602081018484840111156121e9576121e86120fa565b5b6121f48482856121ab565b509392505050565b600082601f830112612211576122106120f5565b5b81356122218482602086016121ba565b91505092915050565b6000806000806080858703121561224457612243611e00565b5b600085013567ffffffffffffffff81111561226257612261611e05565b5b61226e878288016121fc565b945050602061227f87828801611f98565b935050604085013567ffffffffffffffff8111156122a05761229f611e05565b5b6122ac878288016121fc565b925050606085013567ffffffffffffffff8111156122cd576122cc611e05565b5b6122d9878288016121fc565b91505092959194509250565b6122ee81611f77565b82525050565b600060208201905061230960008301846122e5565b92915050565b60006020828403121561232557612324611e00565b5b60006123338482850161204d565b91505092915050565b61234581611e8f565b811461235057600080fd5b50565b6000813590506123628161233c565b92915050565b6000806040838503121561237f5761237e611e00565b5b600061238d8582860161204d565b925050602061239e85828601612353565b9150509250929050565b600067ffffffffffffffff8211156123c3576123c26120ff565b5b6123cc82611f0b565b9050602081019050919050565b60006123ec6123e7846123a8565b61215f565b905082815260208101848484011115612408576124076120fa565b5b6124138482856121ab565b509392505050565b600082601f8301126124305761242f6120f5565b5b81356124408482602086016123d9565b91505092915050565b6000806000806080858703121561246357612462611e00565b5b60006124718782880161204d565b94505060206124828782880161204d565b935050604061249387828801611f98565b925050606085013567ffffffffffffffff8111156124b4576124b3611e05565b5b6124c08782880161241b565b91505092959194509250565b600080604083850312156124e3576124e2611e00565b5b60006124f18582860161204d565b92505060206125028582860161204d565b9150509250929050565b7f4e487b7100000000000000000000000000000000000000000000000000000000600052602260045260246000fd5b6000600282049050600182168061255357607f821691505b6020821081036125665761256561250c565b5b50919050565b6000606082019050612581600083018661200c565b61258e60208301856122e5565b61259b604083018461200c565b949350505050565b7f436572746966696361646f20796120657869737465207061726120657374612060008201527f636564756c610000000000000000000000000000000000000000000000000000602082015250565b60006125ff602683611ed0565b915061260a826125a3565b604082019050919050565b6000602082019050818103600083015261262e816125f2565b9050919050565b60008190508160005260206000209050919050565b60006020601f8301049050919050565b600082821b905092915050565b6000600883026126977fffffffffffffffffffffffffffffffffffffffffffffffffffffffffffffffff8261265a565b6126a1868361265a565b95508019841693508086168417925050509392505050565b6000819050919050565b60006126de6126d96126d484611f77565b6126b9565b611f77565b9050919050565b6000819050919050565b6126f8836126c3565b61270c612704826126e5565b848454612667565b825550505050565b600090565b612721612714565b61272c8184846126ef565b505050565b5b8181101561275057612745600082612719565b600181019050612732565b5050565b601f8211156127955761276681612635565b61276f8461264a565b8101602085101561277e578190505b61279261278a8561264a565b830182612731565b50505b505050565b600082821c905092915050565b60006127b86000198460080261279a565b1980831691505092915050565b60006127d183836127a7565b9150826002028217905092915050565b6127ea82611ec5565b67ffffffffffffffff811115612803576128026120ff565b5b61280d825461253b565b612818828285612754565b600060209050601f83116001811461284b5760008415612839578287015190505b61284385826127c5565b8655506128ab565b601f19841661285986612635565b60005b828110156128815784890151825560018201915060208501945060208101905061285c565b8683101561289e578489015161289a601f8916826127a7565b8355505b6001600288020188555050505b505050505050565b7f456c20746f6b656e206e6f206578697374650000000000000000000000000000600082015250565b60006128e9601283611ed0565b91506128f4826128b3565b602082019050919050565b60006020820190508181036000830152612918816128dc565b9050919050565b600081905092915050565b7f7b00000000000000000000000000000000000000000000000000000000000000600082015250565b600061296060018361291f565b915061296b8261292a565b600182019050919050565b7f226e616d65223a20220000000000000000000000000000000000000000000000600082015250565b60006129ac60098361291f565b91506129b782612976565b600982019050919050565b60006129cd82611ec5565b6129d7818561291f565b93506129e7818560208601611ee1565b80840191505092915050565b7f222c200000000000000000000000000000000000000000000000000000000000600082015250565b6000612a2960038361291f565b9150612a34826129f3565b600382019050919050565b7f22636564756c61223a2022000000000000000000000000000000000000000000600082015250565b6000612a75600b8361291f565b9150612a8082612a3f565b600b82019050919050565b7f226465736372697074696f6e223a202200000000000000000000000000000000600082015250565b6000612ac160108361291f565b9150612acc82612a8b565b601082019050919050565b7f226665636861223a202200000000000000000000000000000000000000000000600082015250565b6000612b0d600a8361291f565b9150612b1882612ad7565b600a82019050919050565b7f2200000000000000000000000000000000000000000000000000000000000000600082015250565b6000612b5960018361291f565b9150612b6482612b23565b600182019050919050565b7f7d00000000000000000000000000000000000000000000000000000000000000600082015250565b6000612ba560018361291f565b9150612bb082612b6f565b600182019050919050565b6000612bc682612953565b9150612bd18261299f565b9150612bdd82876129c2565b9150612be882612a1c565b9150612bf382612a68565b9150612bff82866129c2565b9150612c0a82612a1c565b9150612c1582612ab4565b9150612c2182856129c2565b9150612c2c82612a1c565b9150612c3782612b00565b9150612c4382846129c2565b9150612c4e82612b4c565b9150612c5982612b98565b915081905095945050505050565b7f646174613a6170706c69636174696f6e2f6a736f6e3b6261736536342c000000600082015250565b6000612c9d601d8361291f565b9150612ca882612c67565b601d82019050919050565b6000612cbe82612c90565b9150612cca82846129c2565b915081905092915050565b600081519050612ce481612036565b92915050565b600060208284031215612d0057612cff611e00565b5b6000612d0e84828501612cd5565b91505092915050565b600081519050919050565b600082825260208201905092915050565b6000612d3e82612d17565b612d488185612d22565b9350612d58818560208601611ee1565b612d6181611f0b565b840191505092915050565b6000608082019050612d81600083018761200c565b612d8e602083018661200c565b612d9b60408301856122e5565b8181036060830152612dad8184612d33565b905095945050505050565b600081519050612dc781611e36565b92915050565b600060208284031215612de357612de2611e00565b5b6000612df184828501612db8565b91505092915050565b7f4e487b7100000000000000000000000000000000000000000000000000000000600052601260045260246000fd5b6000604082019050612e3e600083018561200c565b612e4b60208301846122e5565b9392505050565b7f4e487b7100000000000000000000000000000000000000000000000000000000600052601160045260246000fd5b6000612e8c82611f77565b9150612e9783611f77565b9250828202612ea581611f77565b91508282048414831517612ebc57612ebb612e52565b5b5092915050565b6000612ece82611f77565b9150612ed983611f77565b9250828201905080821115612ef157612ef0612e52565b5b92915050565b6000612f0282611f77565b9150612f0d83611f77565b925082612f1d57612f1c612dfa565b5b82820490509291505056fe4142434445464748494a4b4c4d4e4f505152535455565758595a6162636465666768696a6b6c6d6e6f707172737475767778797a303132333435363738392b2fa264697066735822122020dbd4d1c2c2f6b473dc2c3049c596da08bf3d970f965969dcd66e99cb76917864736f6c63430008140033",
  "linkReferences": {},
  "deployedLinkReferences": {}
}